{
  "transactions": [
    {
      "hash": "0xdb7ee4960024220694ae1f34be0ea11338446e6d9daff20b38bba52a93264ae4",
      "transactionType": "CALL",
      "contractName": null,
      "contractAddress": "0x4200000000000000000000000000000000000006",
      "function": "deposit()",
      "arguments": [],
      "transaction": {
        "from": "0xa3888cee7a5a616ca330abb0fb9d962b5c105d7a",
        "to": "0x4200000000000000000000000000000000000006",
        "gas": "0x10050",
        "value": "0x2386f26fc10000",
        "input": "0xd0e30db0",
        "nonce": "0xe",
        "chainId": "0x2105"
      },
      "additionalContracts": [],
      "isFixedGasLimit": false
    },
    {
      "hash": "0x5da2735e62ee685a81a5e9f288e84f99243ba25d43acd20646d164002cb044a5",
      "transactionType": "CALL",
      "contractName": null,
      "contractAddress": "0x4200000000000000000000000000000000000006",
      "function": "approve(address,uint256)",
      "arguments": [
        "0x572cf3C8342A79Da85420A248dA8C3005c1aA52f",
        "10000000000000000"
      ],
      "transaction": {
        "from": "0xa3888cee7a5a616ca330abb0fb9d962b5c105d7a",
        "to": "0x4200000000000000000000000000000000000006",
        "gas": "0xf83a",
        "value": "0x0",
        "input": "0x095ea7b3000000000000000000000000572cf3c8342a79da85420a248da8c3005c1aa52f000000000000000000000000000000000000000000000000002386f26fc10000",
        "nonce": "0xf",
        "chainId": "0x2105"
      },
      "additionalContracts": [],
      "isFixedGasLimit": false
    },
    {
      "hash": "0xa9c18eb1fdcbe5b7a88488b43876a528d8decd7de09dd040f397bf9ed93dd75a",
      "transactionType": "CALL",
      "contractName": null,
      "contractAddress": "0x572cf3c8342a79da85420a248da8c3005c1aa52f",
      "function": "stakeForRelayManager(address,address,uint256,uint256)",
      "arguments": [
        "0x4200000000000000000000000000000000000006",
        "0xb22Ac287D998caC0d150291Eb53826b4DAcF8aF9",
        "15000",
        "10000000000000000"
      ],
      "transaction": {
        "from": "0xa3888cee7a5a616ca330abb0fb9d962b5c105d7a",
        "to": "0x572cf3c8342a79da85420a248da8c3005c1aa52f",
        "gas": "0x29f04",
        "value": "0x0",
        "input": "0x14080fac0000000000000000000000004200000000000000000000000000000000000006000000000000000000000000b22ac287d998cac0d150291eb53826b4dacf8af90000000000000000000000000000000000000000000000000000000000003a98000000000000000000000000000000000000000000000000002386f26fc10000",
        "nonce": "0x10",
        "chainId": "0x2105"
      },
      "additionalContracts": [],
      "isFixedGasLimit": false
    },
    {
      "hash": "0xfb3db8e2e74acfce9abf98a2b2206319f4026447380c2d05ffc2df22a632faea",
      "transactionType": "CALL",
      "contractName": null,
      "contractAddress": "0x572cf3c8342a79da85420a248da8c3005c1aa52f",
      "function": "authorizeHubByOwner(address,address)",
      "arguments": [
        "0xb22Ac287D998caC0d150291Eb53826b4DAcF8aF9",
        "0x54623092d2dB00D706e0Ad4ADaCc024F9cB9E915"
      ],
      "transaction": {
        "from": "0xa3888cee7a5a616ca330abb0fb9d962b5c105d7a",
        "to": "0x572cf3c8342a79da85420a248da8c3005c1aa52f",
        "gas": "0x11401",
        "value": "0x0",
        "input": "0x7835d296000000000000000000000000b22ac287d998cac0d150291eb53826b4dacf8af900000000000000000000000054623092d2db00d706e0ad4adacc024f9cb9e915",
        "nonce": "0x11",
        "chainId": "0x2105"
      },
      "additionalContracts": [],
      "isFixedGasLimit": false
    }
  ],
  "receipts": [
    {
      "status": "0x1",
      "cumulativeGasUsed": "0xdb6a27",
      "logs": [
        {
          "address": "0x4200000000000000000000000000000000000006",
          "topics": [
            "0xe1fffcc4923d04b559f4d29a8bfc6cda04eb5b0d3c460751c2402c5c5cc9109c",
            "0x000000000000000000000000a3888cee7a5a616ca330abb0fb9d962b5c105d7a"
          ],
          "data": "0x000000000000000000000000000000000000000000000000002386f26fc10000",
          "blockHash": "0x51023b0ceb85d1dc4668793626aa80055702866ed4a2c382406ca3b64626c11d",
          "blockNumber": "0x13991d3",
          "transactionHash": "0xdb7ee4960024220694ae1f34be0ea11338446e6d9daff20b38bba52a93264ae4",
          "transactionIndex": "0x69",
          "logIndex": "0x13c",
          "removed": false
        }
      ],
      "logsBloom": "0x00000000000000000000000000008000000000000000000000040000000000000000000000000000000000100000000000000000000000000000000000000000000000000000000000000000000000000000000000000000000000008000000000000000000000000000000000000000400000000000000000000000000000000000000000000000000000000000000000000001002000000000000000000000000000000000000000000000000000000000000000000000000000000000000000000000000000000000000000000000000000000000000000000000000000000000000000000000000000000000010000000000000000400000000000000000",
      "type": "0x2",
      "transactionHash": "0xdb7ee4960024220694ae1f34be0ea11338446e6d9daff20b38bba52a93264ae4",
      "transactionIndex": "0x69",
      "blockHash": "0x51023b0ceb85d1dc4668793626aa80055702866ed4a2c382406ca3b64626c11d",
      "blockNumber": "0x13991d3",
      "gasUsed": "0xaf42",
      "effectiveGasPrice": "0xe8d039",
      "from": "0xa3888cee7a5a616ca330abb0fb9d962b5c105d7a",
      "to": "0x4200000000000000000000000000000000000006",
      "contractAddress": null,
      "l1BaseFeeScalar": "0x8dd",
      "l1BlobBaseFee": "0x1",
      "l1BlobBaseFeeScalar": "0x101c12",
      "l1Fee": "0x28b642e351",
      "l1GasPrice": "0xb36d47ba7",
      "l1GasUsed": "0x640"
    },
    {
      "status": "0x1",
      "cumulativeGasUsed": "0xdc1dde",
      "logs": [
        {
          "address": "0x4200000000000000000000000000000000000006",
          "topics": [
            "0x8c5be1e5ebec7d5bd14f71427d1e84f3dd0314c0f7b2291e5b200ac8c7c3b925",
            "0x000000000000000000000000a3888cee7a5a616ca330abb0fb9d962b5c105d7a",
            "0x000000000000000000000000572cf3c8342a79da85420a248da8c3005c1aa52f"
          ],
          "data": "0x000000000000000000000000000000000000000000000000002386f26fc10000",
          "blockHash": "0x51023b0ceb85d1dc4668793626aa80055702866ed4a2c382406ca3b64626c11d",
          "blockNumber": "0x13991d3",
          "transactionHash": "0x5da2735e62ee685a81a5e9f288e84f99243ba25d43acd20646d164002cb044a5",
          "transactionIndex": "0x6a",
          "logIndex": "0x13d",
          "removed": false
        }
      ],
      "logsBloom": "0x00000000000000000080000000008000000000000000000000040000000000000000000000000000000000100000000000000000000000000000000000200000000000000000000000000000000000000000000000000001000000000000000000000000000000000000000000000000400000000000000000000000000000000000000000000000000000000000000000000000802000000000000000000000020000000000000000000000000000000000000000000000000000000000000000000000000000000000000000000000000000000000000000000000000000000010000000000000000000000000010000000000000000000000000000000000",
      "type": "0x2",
      "transactionHash": "0x5da2735e62ee685a81a5e9f288e84f99243ba25d43acd20646d164002cb044a5",
      "transactionIndex": "0x6a",
      "blockHash": "0x51023b0ceb85d1dc4668793626aa80055702866ed4a2c382406ca3b64626c11d",
      "blockNumber": "0x13991d3",
      "gasUsed": "0xb3b7",
      "effectiveGasPrice": "0xe8d039",
      "from": "0xa3888cee7a5a616ca330abb0fb9d962b5c105d7a",
      "to": "0x4200000000000000000000000000000000000006",
      "contractAddress": null,
      "l1BaseFeeScalar": "0x8dd",
      "l1BlobBaseFee": "0x1",
      "l1BlobBaseFeeScalar": "0x101c12",
      "l1Fee": "0x28b642e351",
      "l1GasPrice": "0xb36d47ba7",
      "l1GasUsed": "0x640"
    },
    {
      "status": "0x1",
      "cumulativeGasUsed": "0xde03ad",
      "logs": [
        {
          "address": "0x4200000000000000000000000000000000000006",
          "topics": [
            "0xddf252ad1be2c89b69c2b068fc378daa952ba7f163c4a11628f55a4df523b3ef",
            "0x000000000000000000000000a3888cee7a5a616ca330abb0fb9d962b5c105d7a",
            "0x000000000000000000000000572cf3c8342a79da85420a248da8c3005c1aa52f"
          ],
          "data": "0x000000000000000000000000000000000000000000000000002386f26fc10000",
          "blockHash": "0x51023b0ceb85d1dc4668793626aa80055702866ed4a2c382406ca3b64626c11d",
          "blockNumber": "0x13991d3",
          "transactionHash": "0xa9c18eb1fdcbe5b7a88488b43876a528d8decd7de09dd040f397bf9ed93dd75a",
          "transactionIndex": "0x6b",
          "logIndex": "0x13e",
          "removed": false
        },
        {
          "address": "0x572cf3c8342a79da85420a248da8c3005c1aa52f",
          "topics": [
            "0xf83af4359c42f5104d95351ec3dd5e88f5344bc7eaea8de052c9b0d5254808fc",
            "0x000000000000000000000000b22ac287d998cac0d150291eb53826b4dacf8af9",
            "0x000000000000000000000000a3888cee7a5a616ca330abb0fb9d962b5c105d7a"
          ],
          "data": "0x0000000000000000000000004200000000000000000000000000000000000006000000000000000000000000000000000000000000000000002386f26fc100000000000000000000000000000000000000000000000000000000000000003a98",
          "blockHash": "0x51023b0ceb85d1dc4668793626aa80055702866ed4a2c382406ca3b64626c11d",
          "blockNumber": "0x13991d3",
          "transactionHash": "0xa9c18eb1fdcbe5b7a88488b43876a528d8decd7de09dd040f397bf9ed93dd75a",
          "transactionIndex": "0x6b",
          "logIndex": "0x13f",
          "removed": false
        }
      ],
      "logsBloom": "0x00000000000000000080000000008000000000000001000000040008000000000000000000000000000000100020000100000000000000000000000000010000000000000000000000000008000000000000000000000001000000000000000000000000000000000000000000000000400000000000000000000010010000000000000000000000000000000000000000040000802000000000000000000000000000000000000000000080000000000000000000000000000000000000000000000002080000000000000000000000000000000000000000000000000000000000000000000000000000000000010000000000000000000000000000000000",
      "type": "0x2",
      "transactionHash": "0xa9c18eb1fdcbe5b7a88488b43876a528d8decd7de09dd040f397bf9ed93dd75a",
      "transactionIndex": "0x6b",
      "blockHash": "0x51023b0ceb85d1dc4668793626aa80055702866ed4a2c382406ca3b64626c11d",
      "blockNumber": "0x13991d3",
      "gasUsed": "0x1e5cf",
      "effectiveGasPrice": "0xe8d039",
      "from": "0xa3888cee7a5a616ca330abb0fb9d962b5c105d7a",
      "to": "0x572cf3c8342a79da85420a248da8c3005c1aa52f",
      "contractAddress": null,
      "l1BaseFeeScalar": "0x8dd",
      "l1BlobBaseFee": "0x1",
      "l1BlobBaseFeeScalar": "0x101c12",
      "l1Fee": "0x2af0dea24c",
      "l1GasPrice": "0xb36d47ba7",
      "l1GasUsed": "0x697"
    },
    {
      "status": "0x1",
      "cumulativeGasUsed": "0xdec066",
      "logs": [
        {
          "address": "0x572cf3c8342a79da85420a248da8c3005c1aa52f",
          "topics": [
            "0xe292c4f6e9f34c975f4958cd5650a8111352feae914a67b06407957105421021",
            "0x000000000000000000000000b22ac287d998cac0d150291eb53826b4dacf8af9",
            "0x00000000000000000000000054623092d2db00d706e0ad4adacc024f9cb9e915"
          ],
          "data": "0x",
          "blockHash": "0x51023b0ceb85d1dc4668793626aa80055702866ed4a2c382406ca3b64626c11d",
          "blockNumber": "0x13991d3",
          "transactionHash": "0xfb3db8e2e74acfce9abf98a2b2206319f4026447380c2d05ffc2df22a632faea",
          "transactionIndex": "0x6c",
          "logIndex": "0x140",
          "removed": false
        }
      ],
      "logsBloom": "0x00000000000000000000000000000000000000008000000000000008040000000000000000000000000000000000000100000000000002000000000000000000000000000000000000000000000000000000000000000000000000000000000000000000000000000000010000000000000000000000000000000000010000000000000000000000000000000000000000040000000000000000000000000000000000000000000000000080000000000000000000000000000000000000000000000000080000000000000000000000000000000000000000000000000000000000000000000000000400000000000000000000000000002000000000000000",
      "type": "0x2",
      "transactionHash": "0xfb3db8e2e74acfce9abf98a2b2206319f4026447380c2d05ffc2df22a632faea",
      "transactionIndex": "0x6c",
      "blockHash": "0x51023b0ceb85d1dc4668793626aa80055702866ed4a2c382406ca3b64626c11d",
      "blockNumber": "0x13991d3",
      "gasUsed": "0xbcb9",
      "effectiveGasPrice": "0xe8d039",
      "from": "0xa3888cee7a5a616ca330abb0fb9d962b5c105d7a",
      "to": "0x572cf3c8342a79da85420a248da8c3005c1aa52f",
      "contractAddress": null,
      "l1BaseFeeScalar": "0x8dd",
      "l1BlobBaseFee": "0x1",
      "l1BlobBaseFeeScalar": "0x101c12",
      "l1Fee": "0x28b642e351",
      "l1GasPrice": "0xb36d47ba7",
      "l1GasUsed": "0x640"
    }
  ],
  "libraries": [],
  "pending": [],
  "returns": {},
  "timestamp": 1727889551,
  "chain": 8453,
  "commit": "cd78061"
}