{
  "transactions": [
    {
      "hash": "0xd4c20471fe6bb3849ce5e114fc023523f5c8445010312c10bfe1a6f3680e722d",
      "transactionType": "CREATE",
      "contractName": "TokenFaucet",
      "contractAddress": "0xfcfc511b8915d3afd0eadc794a0c4151278fe7d1",
      "function": null,
      "arguments": [
        "0x846D8a5fb8a003b431b67115f809a9B9FFFe5012",
        "10000000000000000000",
        "0xabf9Fa3b2b2d9bDd77f4271A0d5A309AA465BCBa"
      ],
      "transaction": {
        "from": "0x7973eb3eb4e9b1801ef454f238cd0790ba70466c",
        "gas": "0x6abb6",
        "value": "0x0",
        "input": "0x60c060405234801561001057600080fd5b506040516105ba3803806105ba83398101604081905261002f9161008b565b6001600160a01b03831660805260a082905261006781600080546001600160a01b0319166001600160a01b0392909216919091179055565b5050506100c7565b80516001600160a01b038116811461008657600080fd5b919050565b6000806000606084860312156100a057600080fd5b6100a98461006f565b9250602084015191506100be6040850161006f565b90509250925092565b60805160a0516104ad61010d600039600081816061015281816101b9015281816102d9015261038101526000818160fa015281816101db01526102ff01526104ad6000f3fe608060405234801561001057600080fd5b50600436106100575760003560e01c80631259b4841461005c5780634e71d92d14610096578063572b6c05146100ae578063ce1b815f146100d0578063fc0c546a146100f5575b600080fd5b6100837f000000000000000000000000000000000000000000000000000000000000000081565b6040519081526020015b60405180910390f35b61009e61011c565b604051901515815260200161008d565b61009e6100bc36600461040c565b6000546001600160a01b0391821691161490565b6000546001600160a01b03165b6040516001600160a01b03909116815260200161008d565b6100dd7f000000000000000000000000000000000000000000000000000000000000000081565b6000806101276103d8565b6001600160a01b03811660009081526001602052604090205490915060ff16156101a45760405162461bcd60e51b8152602060048201526024808201527f416464726573732068617320616c726561647920726563656976656420746f6b60448201526332b7399760e11b60648201526084015b60405180910390fd5b6040516370a0823160e01b81523060048201527f0000000000000000000000000000000000000000000000000000000000000000907f00000000000000000000000000000000000000000000000000000000000000006001600160a01b0316906370a0823190602401602060405180830381865afa15801561022a573d6000803e3d6000fd5b505050506040513d601f19601f8201168201806040525081019061024e919061043c565b101561029c5760405162461bcd60e51b815260206004820152601c60248201527f496e73756666696369656e74206661756365742062616c616e63652e00000000604482015260640161019b565b6001600160a01b03818116600081815260016020819052604091829020805460ff191690911790555163a9059cbb60e01b815260048101919091527f000000000000000000000000000000000000000000000000000000000000000060248201527f00000000000000000000000000000000000000000000000000000000000000009091169063a9059cbb906044016020604051808303816000875af115801561034a573d6000803e3d6000fd5b505050506040513d601f19601f8201168201806040525081019061036e9190610455565b50604080516001600160a01b03831681527f000000000000000000000000000000000000000000000000000000000000000060208201527f47cee97cb7acd717b3c0aa1435d004cd5b3c8c57d70dbceb4e4458bbd60e39d4910160405180910390a1600191505090565b6000601436108015906103f557506000546001600160a01b031633145b15610407575060131936013560601c90565b503390565b60006020828403121561041e57600080fd5b81356001600160a01b038116811461043557600080fd5b9392505050565b60006020828403121561044e57600080fd5b5051919050565b60006020828403121561046757600080fd5b8151801515811461043557600080fdfea2646970667358221220098c3fa5294977e3c177949a22c27da767740e5d7a133f5a92a7008d46135a7064736f6c63430008180033000000000000000000000000846d8a5fb8a003b431b67115f809a9b9fffe50120000000000000000000000000000000000000000000000008ac7230489e80000000000000000000000000000abf9fa3b2b2d9bdd77f4271a0d5a309aa465bcba",
        "nonce": "0x2e",
        "chainId": "0x14a34"
      },
      "additionalContracts": [],
      "isFixedGasLimit": false
    },
    {
      "hash": "0xec4c45df456dafe5f347e1b928eb4df80704ca87dc339ab9b3539f56f359fd35",
      "transactionType": "CREATE",
      "contractName": "TokenFaucet",
      "contractAddress": "0xcecfb48a9e7c0765ed1319ee1bc0f719a30641ce",
      "function": null,
      "arguments": [
        "0x16723e9bb894EfC09449994eC5bCF5b41EE0D9b2",
        "10000000000000000000",
        "0xabf9Fa3b2b2d9bDd77f4271A0d5A309AA465BCBa"
      ],
      "transaction": {
        "from": "0x7973eb3eb4e9b1801ef454f238cd0790ba70466c",
        "gas": "0x6abb6",
        "value": "0x0",
        "input": "0x60c060405234801561001057600080fd5b506040516105ba3803806105ba83398101604081905261002f9161008b565b6001600160a01b03831660805260a082905261006781600080546001600160a01b0319166001600160a01b0392909216919091179055565b5050506100c7565b80516001600160a01b038116811461008657600080fd5b919050565b6000806000606084860312156100a057600080fd5b6100a98461006f565b9250602084015191506100be6040850161006f565b90509250925092565b60805160a0516104ad61010d600039600081816061015281816101b9015281816102d9015261038101526000818160fa015281816101db01526102ff01526104ad6000f3fe608060405234801561001057600080fd5b50600436106100575760003560e01c80631259b4841461005c5780634e71d92d14610096578063572b6c05146100ae578063ce1b815f146100d0578063fc0c546a146100f5575b600080fd5b6100837f000000000000000000000000000000000000000000000000000000000000000081565b6040519081526020015b60405180910390f35b61009e61011c565b604051901515815260200161008d565b61009e6100bc36600461040c565b6000546001600160a01b0391821691161490565b6000546001600160a01b03165b6040516001600160a01b03909116815260200161008d565b6100dd7f000000000000000000000000000000000000000000000000000000000000000081565b6000806101276103d8565b6001600160a01b03811660009081526001602052604090205490915060ff16156101a45760405162461bcd60e51b8152602060048201526024808201527f416464726573732068617320616c726561647920726563656976656420746f6b60448201526332b7399760e11b60648201526084015b60405180910390fd5b6040516370a0823160e01b81523060048201527f0000000000000000000000000000000000000000000000000000000000000000907f00000000000000000000000000000000000000000000000000000000000000006001600160a01b0316906370a0823190602401602060405180830381865afa15801561022a573d6000803e3d6000fd5b505050506040513d601f19601f8201168201806040525081019061024e919061043c565b101561029c5760405162461bcd60e51b815260206004820152601c60248201527f496e73756666696369656e74206661756365742062616c616e63652e00000000604482015260640161019b565b6001600160a01b03818116600081815260016020819052604091829020805460ff191690911790555163a9059cbb60e01b815260048101919091527f000000000000000000000000000000000000000000000000000000000000000060248201527f00000000000000000000000000000000000000000000000000000000000000009091169063a9059cbb906044016020604051808303816000875af115801561034a573d6000803e3d6000fd5b505050506040513d601f19601f8201168201806040525081019061036e9190610455565b50604080516001600160a01b03831681527f000000000000000000000000000000000000000000000000000000000000000060208201527f47cee97cb7acd717b3c0aa1435d004cd5b3c8c57d70dbceb4e4458bbd60e39d4910160405180910390a1600191505090565b6000601436108015906103f557506000546001600160a01b031633145b15610407575060131936013560601c90565b503390565b60006020828403121561041e57600080fd5b81356001600160a01b038116811461043557600080fd5b9392505050565b60006020828403121561044e57600080fd5b5051919050565b60006020828403121561046757600080fd5b8151801515811461043557600080fdfea2646970667358221220098c3fa5294977e3c177949a22c27da767740e5d7a133f5a92a7008d46135a7064736f6c6343000818003300000000000000000000000016723e9bb894efc09449994ec5bcf5b41ee0d9b20000000000000000000000000000000000000000000000008ac7230489e80000000000000000000000000000abf9fa3b2b2d9bdd77f4271a0d5a309aa465bcba",
        "nonce": "0x2f",
        "chainId": "0x14a34"
      },
      "additionalContracts": [],
      "isFixedGasLimit": false
    },
    {
      "hash": "0xf6373d4421df1ebe3e173a4bbbc4a753cb80bc1dd6d2fff634c2f8f3ff08012d",
      "transactionType": "CALL",
      "contractName": null,
      "contractAddress": "0x846d8a5fb8a003b431b67115f809a9b9fffe5012",
      "function": "transfer(address,uint256)",
      "arguments": [
        "0xFCfC511B8915D3aFD0eadc794A0c4151278fE7D1",
        "1000000000000000000000000"
      ],
      "transaction": {
        "from": "0x7973eb3eb4e9b1801ef454f238cd0790ba70466c",
        "to": "0x846d8a5fb8a003b431b67115f809a9b9fffe5012",
        "gas": "0x1162f",
        "value": "0x0",
        "input": "0xa9059cbb000000000000000000000000fcfc511b8915d3afd0eadc794a0c4151278fe7d100000000000000000000000000000000000000000000d3c21bcecceda1000000",
        "nonce": "0x30",
        "chainId": "0x14a34"
      },
      "additionalContracts": [],
      "isFixedGasLimit": false
    },
    {
      "hash": "0xa142482089afe76673e00b91fe8c5dd62f0956265b80fc9aafaa8461414470f5",
      "transactionType": "CALL",
      "contractName": "ERC20ExecuteMetaTxToken",
      "contractAddress": "0x16723e9bb894efc09449994ec5bcf5b41ee0d9b2",
      "function": "transfer(address,uint256)",
      "arguments": [
        "0xCeCFB48a9e7C0765Ed1319ee1Bc0F719a30641Ce",
        "1000000000000000000000000"
      ],
      "transaction": {
        "from": "0x7973eb3eb4e9b1801ef454f238cd0790ba70466c",
        "to": "0x16723e9bb894efc09449994ec5bcf5b41ee0d9b2",
        "gas": "0x118bd",
        "value": "0x0",
        "input": "0xa9059cbb000000000000000000000000cecfb48a9e7c0765ed1319ee1bc0f719a30641ce00000000000000000000000000000000000000000000d3c21bcecceda1000000",
        "nonce": "0x31",
        "chainId": "0x14a34"
      },
      "additionalContracts": [],
      "isFixedGasLimit": false
    }
  ],
  "receipts": [
    {
      "status": "0x1",
      "cumulativeGasUsed": "0x168703",
      "logs": [],
      "logsBloom": "0x00000000000000000000000000000000000000000000000000000000000000000000000000000000000000000000000000000000000000000000000000000000000000000000000000000000000000000000000000000000000000000000000000000000000000000000000000000000000000000000000000000000000000000000000000000000000000000000000000000000000000000000000000000000000000000000000000000000000000000000000000000000000000000000000000000000000000000000000000000000000000000000000000000000000000000000000000000000000000000000000000000000000000000000000000000000",
      "type": "0x2",
      "transactionHash": "0xd4c20471fe6bb3849ce5e114fc023523f5c8445010312c10bfe1a6f3680e722d",
      "transactionIndex": "0x4",
      "blockHash": "0x4e6318893ae793b8361dc0ea9f10b92725815e464c47488b22b457da75da280b",
      "blockNumber": "0xc5c1f5",
      "gasUsed": "0x52202",
      "effectiveGasPrice": "0xf8224",
      "from": "0x7973eb3eb4e9b1801ef454f238cd0790ba70466c",
      "to": null,
      "contractAddress": "0xfcfc511b8915d3afd0eadc794a0c4151278fe7d1",
      "l1BaseFeeScalar": "0x44d",
      "l1BlobBaseFee": "0xd4ba2e",
      "l1BlobBaseFeeScalar": "0xa118b",
      "l1Fee": "0x202a9bebc",
      "l1GasPrice": "0xf",
      "l1GasUsed": "0x3aaa"
    },
    {
      "status": "0x1",
      "cumulativeGasUsed": "0x1ba905",
      "logs": [],
      "logsBloom": "0x00000000000000000000000000000000000000000000000000000000000000000000000000000000000000000000000000000000000000000000000000000000000000000000000000000000000000000000000000000000000000000000000000000000000000000000000000000000000000000000000000000000000000000000000000000000000000000000000000000000000000000000000000000000000000000000000000000000000000000000000000000000000000000000000000000000000000000000000000000000000000000000000000000000000000000000000000000000000000000000000000000000000000000000000000000000",
      "type": "0x2",
      "transactionHash": "0xec4c45df456dafe5f347e1b928eb4df80704ca87dc339ab9b3539f56f359fd35",
      "transactionIndex": "0x5",
      "blockHash": "0x4e6318893ae793b8361dc0ea9f10b92725815e464c47488b22b457da75da280b",
      "blockNumber": "0xc5c1f5",
      "gasUsed": "0x52202",
      "effectiveGasPrice": "0xf8224",
      "from": "0x7973eb3eb4e9b1801ef454f238cd0790ba70466c",
      "to": null,
      "contractAddress": "0xcecfb48a9e7c0765ed1319ee1bc0f719a30641ce",
      "l1BaseFeeScalar": "0x44d",
      "l1BlobBaseFee": "0xd4ba2e",
      "l1BlobBaseFeeScalar": "0xa118b",
      "l1Fee": "0x202a9bebc",
      "l1GasPrice": "0xf",
      "l1GasUsed": "0x3aaa"
    },
    {
      "status": "0x1",
      "cumulativeGasUsed": "0x7213a",
      "logs": [
        {
          "address": "0x846d8a5fb8a003b431b67115f809a9b9fffe5012",
          "topics": [
            "0xddf252ad1be2c89b69c2b068fc378daa952ba7f163c4a11628f55a4df523b3ef",
            "0x0000000000000000000000007973eb3eb4e9b1801ef454f238cd0790ba70466c",
            "0x000000000000000000000000fcfc511b8915d3afd0eadc794a0c4151278fe7d1"
          ],
          "data": "0x00000000000000000000000000000000000000000000d3c21bcecceda1000000",
          "blockHash": "0x2ca5d209640d1d53fc80bb679abe6132f777f391b185c4dc194b6bded170bb91",
          "blockNumber": "0xc5c1f6",
          "transactionHash": "0xf6373d4421df1ebe3e173a4bbbc4a753cb80bc1dd6d2fff634c2f8f3ff08012d",
          "transactionIndex": "0x2",
          "logIndex": "0x9",
          "removed": false
        }
      ],
      "logsBloom": "0x00000000000000000000000000000000000000000000000000000000000000000000000000000000000000000000080000000000000200200000000008000000000000000000000000000008000000000000000000000000000020000000000000000000000000000000000000000000000000000000000000000018800000000000000000000000000000080000000000000000000000000000000000000000000000000000000000000000000000000000000000000000000000000000000000000002000000000000000000000000000001000000000000000000000000000000000000000000000000000000000000000000000000000000000000000000",
      "type": "0x2",
      "transactionHash": "0xf6373d4421df1ebe3e173a4bbbc4a753cb80bc1dd6d2fff634c2f8f3ff08012d",
      "transactionIndex": "0x2",
      "blockHash": "0x2ca5d209640d1d53fc80bb679abe6132f777f391b185c4dc194b6bded170bb91",
      "blockNumber": "0xc5c1f6",
      "gasUsed": "0xc967",
      "effectiveGasPrice": "0xf78a9",
      "from": "0x7973eb3eb4e9b1801ef454f238cd0790ba70466c",
      "to": "0x846d8a5fb8a003b431b67115f809a9b9fffe5012",
      "contractAddress": null,
      "l1BaseFeeScalar": "0x44d",
      "l1BlobBaseFee": "0xd4ba2e",
      "l1BlobBaseFeeScalar": "0xa118b",
      "l1Fee": "0x36d4d489",
      "l1GasPrice": "0xf",
      "l1GasUsed": "0x640"
    },
    {
      "status": "0x1",
      "cumulativeGasUsed": "0x7ec7a",
      "logs": [
        {
          "address": "0x16723e9bb894efc09449994ec5bcf5b41ee0d9b2",
          "topics": [
            "0xddf252ad1be2c89b69c2b068fc378daa952ba7f163c4a11628f55a4df523b3ef",
            "0x0000000000000000000000007973eb3eb4e9b1801ef454f238cd0790ba70466c",
            "0x000000000000000000000000cecfb48a9e7c0765ed1319ee1bc0f719a30641ce"
          ],
          "data": "0x00000000000000000000000000000000000000000000d3c21bcecceda1000000",
          "blockHash": "0x2ca5d209640d1d53fc80bb679abe6132f777f391b185c4dc194b6bded170bb91",
          "blockNumber": "0xc5c1f6",
          "transactionHash": "0xa142482089afe76673e00b91fe8c5dd62f0956265b80fc9aafaa8461414470f5",
          "transactionIndex": "0x3",
          "logIndex": "0xa",
          "removed": false
        }
      ],
      "logsBloom": "0x00000000000000000000000000000000000000000000000000000000000010000000000000000000000000000000000000000000000000200000000000000000000000000000000000000008000000002000000000000000000000000020000000000000000000000000000000000000000000000000000040000010000000000000000000000000000000080000000000000000000000000000000000000000000000000000000000000000000000000000000000000000000000000000000000000002000000400000000000000000000001000000000000000000000000000000000000000000000000000000000000000000000000000000008000000000",
      "type": "0x2",
      "transactionHash": "0xa142482089afe76673e00b91fe8c5dd62f0956265b80fc9aafaa8461414470f5",
      "transactionIndex": "0x3",
      "blockHash": "0x2ca5d209640d1d53fc80bb679abe6132f777f391b185c4dc194b6bded170bb91",
      "blockNumber": "0xc5c1f6",
      "gasUsed": "0xcb40",
      "effectiveGasPrice": "0xf78a9",
      "from": "0x7973eb3eb4e9b1801ef454f238cd0790ba70466c",
      "to": "0x16723e9bb894efc09449994ec5bcf5b41ee0d9b2",
      "contractAddress": null,
      "l1BaseFeeScalar": "0x44d",
      "l1BlobBaseFee": "0xd4ba2e",
      "l1BlobBaseFeeScalar": "0xa118b",
      "l1Fee": "0x36d4d489",
      "l1GasPrice": "0xf",
      "l1GasUsed": "0x640"
    }
  ],
  "libraries": [],
  "pending": [],
  "returns": {},
  "timestamp": 1721688786,
  "chain": 84532,
  "commit": "64322c1"
}