{
  "transactions": [
    {
      "hash": "0xd2c945b51a8265fe1b8cdbbb9cbe9e51cd981e3b31415a7898807d702dadbdca",
      "transactionType": "CALL",
      "contractName": null,
      "contractAddress": "0x9bf59a7924cba2475a03ad77e92fcf1eaddb2cc2",
      "function": "setRelayHub(address)",
      "arguments": [
        "0xb570b57b821670707fF4E38Ea53fcb67192278F8"
      ],
      "transaction": {
        "from": "0x7973eb3eb4e9b1801ef454f238cd0790ba70466c",
        "to": "0x9bf59a7924cba2475a03ad77e92fcf1eaddb2cc2",
        "gas": "0x1171f",
        "value": "0x0",
        "input": "0x7bb05264000000000000000000000000b570b57b821670707ff4e38ea53fcb67192278f8",
        "nonce": "0x37",
        "chainId": "0x14a34"
      },
      "additionalContracts": [],
      "isFixedGasLimit": false
    }
  ],
  "receipts": [
    {
      "status": "0x1",
      "cumulativeGasUsed": "0x334042",
      "logs": [],
      "logsBloom": "0x00000000000000000000000000000000000000000000000000000000000000000000000000000000000000000000000000000000000000000000000000000000000000000000000000000000000000000000000000000000000000000000000000000000000000000000000000000000000000000000000000000000000000000000000000000000000000000000000000000000000000000000000000000000000000000000000000000000000000000000000000000000000000000000000000000000000000000000000000000000000000000000000000000000000000000000000000000000000000000000000000000000000000000000000000000000",
      "type": "0x2",
      "transactionHash": "0xd2c945b51a8265fe1b8cdbbb9cbe9e51cd981e3b31415a7898807d702dadbdca",
      "transactionIndex": "0x5",
      "blockHash": "0xefcc48ed45fcf7dfe11faed1b07083bb79e0f3313e1d5a5181f5fbc839d787d2",
      "blockNumber": "0xc67907",
      "gasUsed": "0xca15",
      "effectiveGasPrice": "0x1727e7",
      "from": "0x7973eb3eb4e9b1801ef454f238cd0790ba70466c",
      "to": "0x9bf59a7924cba2475a03ad77e92fcf1eaddb2cc2",
      "contractAddress": null,
      "l1BaseFeeScalar": "0x44d",
      "l1BlobBaseFee": "0xe763b3da5",
      "l1BlobBaseFeeScalar": "0xa118b",
      "l1Fee": "0x3ba441c1a4b",
      "l1GasPrice": "0x37",
      "l1GasUsed": "0x640"
    }
  ],
  "libraries": [],
  "pending": [],
  "returns": {},
  "timestamp": 1721782515,
  "chain": 84532,
  "commit": "6aae089"
}