{
  "transactions": [
    {
      "hash": "0xcaf3a9ad216560db3751748543511ae82e0c6e26f4005ead8c18d53a6bc58732",
      "transactionType": "CALL",
      "contractName": null,
      "contractAddress": "0x01b83b33f0dd8be68627a9be68e9e7e3c209a6b1",
      "function": "setMethodOptions(address,bytes4,bool)",
      "arguments": [
        "0x833589fCD6eDb6E08f4c7C32D4f71b54bdA02913",
        "0xd505accf00000000000000000000000000000000000000000000000000000000",
        "true"
      ],
      "transaction": {
        "from": "0xa3888cee7a5a616ca330abb0fb9d962b5c105d7a",
        "to": "0x01b83b33f0dd8be68627a9be68e9e7e3c209a6b1",
        "gas": "0xfd51",
        "value": "0x0",
        "input": "0xa9625ba6000000000000000000000000833589fcd6edb6e08f4c7c32d4f71b54bda02913d505accf000000000000000000000000000000000000000000000000000000000000000000000000000000000000000000000000000000000000000000000001",
        "nonce": "0x17",
        "chainId": "0x2105"
      },
      "additionalContracts": [],
      "isFixedGasLimit": false
    }
  ],
  "receipts": [
    {
      "status": "0x1",
      "cumulativeGasUsed": "0x1c72d18",
      "logs": [],
      "logsBloom": "0x00000000000000000000000000000000000000000000000000000000000000000000000000000000000000000000000000000000000000000000000000000000000000000000000000000000000000000000000000000000000000000000000000000000000000000000000000000000000000000000000000000000000000000000000000000000000000000000000000000000000000000000000000000000000000000000000000000000000000000000000000000000000000000000000000000000000000000000000000000000000000000000000000000000000000000000000000000000000000000000000000000000000000000000000000000000",
      "type": "0x2",
      "transactionHash": "0xcaf3a9ad216560db3751748543511ae82e0c6e26f4005ead8c18d53a6bc58732",
      "transactionIndex": "0x119",
      "blockHash": "0xe4bf930cdbd97ffdb383869159a02648afc987e79f730dd91fecbdabe1777d9c",
      "blockNumber": "0x13a8c0d",
      "gasUsed": "0xb766",
      "effectiveGasPrice": "0x43388c",
      "from": "0xa3888cee7a5a616ca330abb0fb9d962b5c105d7a",
      "to": "0x01b83b33f0dd8be68627a9be68e9e7e3c209a6b1",
      "contractAddress": null,
      "l1BaseFeeScalar": "0x8dd",
      "l1BlobBaseFee": "0x1",
      "l1BlobBaseFeeScalar": "0x101c12",
      "l1Fee": "0x2af6e0c49",
      "l1GasPrice": "0xbd5a8fa0",
      "l1GasUsed": "0x640"
    }
  ],
  "libraries": [],
  "pending": [],
  "returns": {},
  "timestamp": 1728017668,
  "chain": 8453,
  "commit": "cd78061"
}